:02000002B0004C
:1040000000400B0018520B00000006000C000502D7
:084010000401810C0000000016
:04401800604F0B00EA
:10401C0009480A49884208B505D0094A824202D0AB
:10402C00121A00F0E5FE0748074A0021121A00F0A8
:10403C00EDFE014808BD00BF48E6032084510B008B
:10404C00B4E60320B4E60320EDE7032070B5074E79
:10405C00074C00F0A3FDA41BA4080025AC4200D122
:10406C0070BD56F8043B98470135F7E758510B00E3
:10407C0078510B0000F013B808B500F015F8BDE846
:10408C00084000F043BD00F0BFB900F0C5B900789E
:10409C00B0FA80F04009704701230370704701218A
:1040AC00022000F0EBBD000010B5084C0220216886
:1040BC0000F0F5FD23680133FF2BC8BF00232360FC
:1040CC000420BDE8104000F0BFB900BFB4E60320E7
:1040DC0008B5024B1B685B6C019308BD48020300DA
:1040EC0008B5024B1B685B68019308BD18020300FE
:1040FC0008B5024B1B685B69019308BD18020300ED
:10410C0008B5024B1B685B68019308BD2C020300C9
:10411C0008B5024B1B689B68019308BD2C02030079
:10412C0008B5024B1B68DB68019308BD2C02030029
:10413C0008B5024B1B689B6A019308BD2C02030057
:10414C0008B5024B1B689B6F019308BD2C02030042
:10415C0008B5024B1B681B6A019308BD28020300BB
:10416C0008B5024B1B685B6A019308BD280203006B
:10417C0008B5024B1B689B6A019308BD280203001B
:10418C0008B5024B1B68DB6A019308BD28020300CB
:10419C0008B5024B1B681B6B019308BD280203007A
:1041AC0008B5024B1B685B6B019308BD280203002A
:1041BC0008B5024B1B681B6C019308BD2802030059
:1041CC0008B5024B1B685B69019308BD64020300D0
:1041DC0008B5024B1B689B68019308BD680203007D
:1041EC0008B5024B1B68DB68019308BD680203002D
:1041FC0008B5024B1B68DB69019308BD3002030054
:10420C0008B5024B1B681B6A019308BD3002030002
:10421C0008B5024B1B68DB68019308BD3C02030028
:10422C0008B5024B1B681B69019308BD3C020300D7
:10423C0008B5024B1B685B69019308BD3C02030087
:10424C0008B5024B1B689B69019308BD3C02030037
:10425C0008B5024B1B68DB69019308BD3C020300E7
:10426C0008B5024B1B681B6A019308BD3C02030096
:10427C0008B5024B1B689B6A019308BD3C02030006
:10428C0008B5024B1B681B6C019308BD3C02030074
:10429C0008B5024B1B681B68019308BD4C02030058
:1042AC0008B5024B1B681B69019308BD4C02030047
:1042BC0008B5024B1B685B69019308BD4C020300F7
:1042CC0008B5024B1B689B69019308BD4C020300A7
:1042DC0008B5024B1B68DB69019308BD4C02030057
:1042EC0008B5024B1B681B6A019308BD4C02030006
:1042FC0008B5024B1B685B68019308BD20020300E4
:10430C0008B5024B1B685B69019308BD20020300D2
:10431C0008B5034B1B68D3F88830019308BD000027
:10432C002002030008B5034B1B68D3F894300193AB
:10433C0008BD00002002030008B5024B1B68DB6BB4
:10434C00019308BD4402030008B5024B1B685B686F
:10435C00019308BD4002030008B5024B1B689B6823
:10436C00019308BD4002030008B5024B1B68DB68D3
:10437C00019308BD4002030008B5024B1B681B6982
:10438C00019308BD4002030008B5024B1B685B6932
:10439C00019308BD4002030008B5024B1B689B69E2
:1043AC00019308BD4002030008B5024B1B68DB6992
:1043BC00019308BD4002030008B5024B1B681B6A41
:1043CC00019308BD4002030008B5024B1B681B6B30
:1043DC00019308BD4002030008B5024B1B685B6BE0
:1043EC00019308BD4002030008B5024B1B681B6C0F
:1043FC00019308BD4002030008B5024B1B685B6CBF
:10440C00019308BD4002030008B5024B1B681B68F2
:10441C00019308BD1C02030008B5024B1B685B68C6
:10442C00019308BD1C02030008B5024B1B681B6CF2
:10443C00019308BD1C02030008B5024B1B685B6CA2
:10444C00019308BD1C0203000021FFF759BF0000B7
:10445C00024800230360FFF73BBE00BFB8E6032011
:10446C00002240681146FFF7A7BF002240681146A2
:10447C00FFF7B2BF40680022FFF7A6BF40680022DA
:10448C0081F00101FFF790BF002340681A461946DE
:10449C00FFF782BF002340681A461946FFF774BF26
:1044AC00002240681146FFF767BF002240681146A2
:1044BC00FFF752BF406800220221FFF755BF0023CF
:1044CC0040681A46FFF740BF024B03225A60024A6B
:1044DC001A607047BCE603207C4F0B007047F8B5A0
:1044EC00064615460C468F18BC4206D0336814F8A5
:1044FC00011B9B6830469847F6E72846F8BD007CC0
:10450C000022FFF725BE007C0021FFF729BE007CAE
:10451C000021FFF72DBE007C0021FFF731BE007C8F
:10452C000021FFF735BE10B514210446FFF7ADFD91
:10453C00204610BD10B54FF47A730446084600218E
:10454C00C4E90113034B236020741146FFF730FEBE
:10455C00204610BDB84F0B00704710B5182104460B
:10456C00FFF793FD204610BDF0B5037D062B8DB0F3
:10457C000E4600F104074FF0000412D000F10805BC
:10458C0015F8011D0A22304600F043F9AF420444ED
:10459C0019D0002CF4D02E21304600F037F9044409
:1045AC00EEE72F236A4639460A208DF80040FFF7C4
:1045BC0007FE684600F060FC33680246DB6869461B
:1045CC0030469847044620460DB0F0BD10B5054B5B
:1045DC000446112240F8043B002100F017FC204651
:1045EC0010BD00BFE04F0B000346074A10B543F85F
:1045FC00042B01F1100251F8044B43F8044B914287
:10460C00F9D10A781A7010BDE04F0B0010B59DF867
:10461C00084044EA032343EA024242EA01610423CC
:10462C004160037510BD000007B5064B0360CB78E5
:10463C0000938B784A780978FFF7E8FF03B05DF8B0
:10464C0004FB00BFE04F0B00014B024A1A6070479D
:10465C00C4E60320EC4F0B00002340681A46FFF71A
:10466C0073BE406800220221FFF77EBE0022406824
:10467C001146FFF771BE002240681146FFF77CBE61
:10468C00002340681A461946FFF77EBE0023406897
:10469C001A461946FFF780BE40680021FFF7A4BEFA
:1046AC0040680021FFF7A8BE4068002281F001019C
:1046BC00FFF77ABE40680022FFF786BE00224068F2
:1046CC001146FFF789BE002240681146FFF774BE01
:1046DC002DE9F04395B014460D460746FFF776FFDB
:1046EC0000211C220DA8009100F090FB40230C939C
:1046FC0020466B460CAA0021FFF772FD04460028E9
:10470C004BD1024601216868FFF736FE0221804634
:10471C0022466868FFF730FE009E81462146002E37
:10472C003BD0002939D17368022B03D00A2B11D04E
:10473C00F669F4E7B8F1000FFAD0716906A80431F4
:10474C0007ADFFF771FF0FCD3C1D0FC42B68237015
:10475C004146EDE7B9F1000FEAD07469102201A8C7
:10476C0000F054FB06238DF8143001AD04F108035E
:10477C001834186859682A4603C20833A3421546F0
:10478C00F7D101A906A807ADFFF72EFF0FCD3C1DF1
:10479C000FC42B6823704946CAE70098FFF718FD31
:1047AC00384615B0BDE8F083024B034A1A6000226C
:1047BC005A607047C8E60320F84F0B00F8B5064660
:1047CC000D468F180024BD420CD0336815F8011B20
:1047DC009B6830469847031E01DB1C44F3E7002C12
:1047EC0008BF1C462046F8BD13B50446084659B10F
:1047FC00019100F041FB23680199DB6802462046D9
:10480C0002B0BDE81040184702B010BD03689B68A9
:10481C00184730B58BB00023012A8DF8243098BF8F
:10482C000A2209AC0D46B1FBF2F101FB125303F065
:10483C00FF03092B94BF30333733DBB2AA4204F8A1
:10484C00013DEFD92146FFF7CFFF0BB030BD000083
:10485C00014B00229A607047D0E6032010B5044645
:10486C0008462170FFF7C4FC00236360204610BD8E
:10487C00054B02221A60054B054A9A600020C3E9D9
:10488C000000FFF735BD00BFECE60320E0E6032097
:10489C000000FFFF024B1A68024B1A60704700BF02
:1048AC0048E60320F0E6032070474174704708B5D2
:1048BC00007CFFF7DDFC20EAE07008BD08B5007C49
:1048CC00FFF7AEFC20EAE07008BD08B5007CFFF7EE
:1048DC00B7FC40EAE07008BD08B5007CFFF7A8FC07
:1048EC0040EAE07008BD007CFFF7B2BC37B5457CF0
:1048FC0004462DB1207C03B0BDE83040FFF788BCE6
:10490C00007C0191FFF7B4FC00280199F2DC2846E9
:10491C0003B030BD10B514210446FFF7B6FB20469A
:10492C0010BD000010B54FF47A73044608461146CA
:10493C000022C4E90123044B236001232074637417
:10494C00FFF79EFC204610BD50500B004174704781
:10495C007047704708B50021007CFFF7B1FC40EAB6
:10496C00E07008BD08B50121007CFFF7A9FC40EA06
:10497C00E07008BD08B5007CFFF79AFC20EAE070F7
:10498C0008BD08B5007CFFF78BFC20EAE07008BD81
:10499C0013B50446007C0191FFF78AFC00280199AD
:1049AC0001DC607C20B1207CFFF792FC20EAE070F7
:1049BC0002B010BD007CFFF793BC10B51421044667
:1049CC00FFF763FB204610BD10B54FF47A73044615
:1049DC0008460021C4E90113044B23600123207411
:1049EC0063741146FFF754FC204610BD80500B0039
:1049FC0010B514220446002100F008FA204610BD20
:104A0C0010B50F4C88B003A8FFF7F2FF2178BFF365
:104A1C005B8F11F001010FD120460191FFF737FB9D
:104A2C00019948B103AA0748FFF7CEFF2046FFF7CC
:104A3C0033FB054800F0D6F9024808B010BD00BFA2
:104A4C00F4E60320F8E603205D490B0000224068E1
:104A5C001146FFF791BC002240681146FFF7ACBC31
:104A6C00002240681146FFF7B7BC40680022FFF7F0
:104A7C00ABBC4068002281F00101FFF795BC00231C
:104A8C0040681A461946FFF787BC002340681A464F
:104A9C001946FFF779BC002240681146FFF75CBC51
:104AAC00406800220221FFF75FBC002340681A46D1
:104ABC00FFF74ABC024B04225A60024A1A60704744
:104ACC000CE70320B0500B00014B1860704700BF7F
:104ADC004CE6032008B50B4B43B1FFF791FF03687D
:104AEC001B699847002801DDAFF30080064B43B1EA
:104AFC0000F052F903681B699847002801DDAFF3F9
:104B0C00008008BD000000000000000008B5FFF7A1
:104B1C00E1FFFFF7EDFA014B186008BD28E7032011
:104B2C000548064A064908B5121A00F061F9054B0A
:104B3C00054A1A6008BD00BF00F4032004F40320EA
:104B4C0080510B0000F403201E1C279A07B500238C
:104B5C0000931A466FF07701FFF7E4FB03B05DF8A2
:104B6C0004FB000007B543880A2B08D0502B0BD14F
:104B7C00094B1B684BB103B05DF804EB1847FFF70A
:104B8C00E5FF03B05DF804FB002300931A466FF0B9
:104B9C007701FFF7C7FBF4E718E7032010B51248BD
:104BAC000021FFF749FC114B1A68114B9A42114B2B
:104BBC000CBF012200221A7001D0FFF7B1FFFFF7E2
:104BCC008FFA044600F02AF90B4B13B12046AFF3D1
:104BDC00008000210848FFF7AFFBBDE810400748F4
:104BEC000021FFF795BB00BFD54A0B0000F4032052
:104BFC001E1C279A14E7032000000000714B0B00C9
:104C0C00232813B502D9002002B010BDA0F10B036C
:104C1C00022B1AD8174C2178BFF35B8F11F00101CE
:104C2C000BD120460191FFF732FA019928B11248B5
:104C3C00FFF714FE2046FFF72FFA0F4B1878FFF7FB
:104C4C00DFFA0028DFD10120DEE7012809D800F0C7
:104C5C0063F80021007CFFF7A3FA80F00100C0B2DA
:104C6C00D2E709380128EED800F096F8007CFFF75F
:104C7C00F7FAF2E71CE7032020E70320232838B5D6
:104C8C0004460D460AD8FF2908D0FFF7B9FF28B112
:104C9C0029462046BDE83840FFF73ABA38BD38B54A
:104CAC0004460D46FFF7ACFFF0B104212046FFF798
:104CBC0027FA042805D1A9B22046BDE83840FFF7F1
:104CCC0037BA02212046FFF71BFA02280CD12046E6
:104CDC00FFF726FA012801D0042805D129462046E1
:104CEC00BDE83840FFF72CBA38BD704738B52025E1
:104CFC00142304460360856005610649284600F0CC
:104D0C006FF804496060284600F06AF8E0602046BD
:104D1C0038BD00BFE4500B0030B50E4D2978BFF301
:104D2C005B8F11F0010487B011D12846FFF7AFF962
:104D3C0068B101A8FFF7DAFF01AA21460648FFF780
:104D4C00F9FB2846FFF7A8F9044800F04BF8024895
:104D5C0007B030BD2CE7032030E70320F74C0B00E5
:104D6C007047000038B5044614252A46002100F08F
:104D7C004DF825804025074925812846258200F0DD
:104D8C002FF804496060284600F02AF8E0602046BD
:104D9C0038BD00BFE4500B0030B50E4D2978BFF381
:104DAC005B8F11F0010487B011D12846FFF76FF922
:104DBC0068B101A8FFF7D6FF01AA21460648FFF704
:104DCC00B1FD2846FFF768F9044800F00BF80248DB
:104DDC0007B030BD44E7032048E703206D4D0B00BE
:104DEC00FFF751B9002301461A46184600F04CB89B
:104DFC000A44914200F1FF3300D1704710B511F80D
:104E0C00014B03F8014F9142F9D110BD0244034606
:104E1C00934200D1704703F8011BF9E738B5104BEA
:104E2C001D68AB6B0446B3B91820FFF7EDFA0246C8
:104E3C00A86320B90B4B0C484221FFF7F5FA0B493C
:104E4C000B4BC0E900130B4B83600B2383810021B8
:104E5C000120C2E90401AB6B00221C615A6138BD10
:104E6C004CE60320E5500B00FC500B000E33CDAB91
:104E7C0034126DE6ECDE0500034613F8012B002A14
:104E8C00FBD1181A013870472DE9F843DFF8B880C8
:104E9C000646D8F800001F460D46914600F056F81D
:104EAC00254B1C6834B9254C1C60254B13B11B6871
:104EBC00C4F8883063681F2B07DDD8F8000000F0B9
:104ECC0047F84FF0FF30BDE8F8834EB3D4F88800B4
:104EDC0088B91C4B23B9D8F8000000F038F8F0E77B
:104EEC004FF48470FFF790FA0028F4D00023C0E947
:104EFC004033C4F88800636840F8239001229A403C
:104F0C0000EB8301D0F800311343C0F80031022EBE
:104F1C00C1F8807002BFD0F804311343C0F80431DB
:104F2C006368D8F800005A1C0233626044F82350BE
:104F3C0000F00EF80020C6E7E8E703205CE703204A
:104F4C000000000015440B00B0E6032070477047CA
:104F5C00704700001D400B0059400B0081400B00B6
:104F6C0085400B0000000000000000000000000065
:104F7C00CB440B00C1440B00B7440B00AD440B00F9
:104F8C00A1440B0095440B00A5460B00AD460B004D
:104F9C0089440B0081440B0077440B006D440B00DB
:104FAC00DD460B000000000000000000E9440B008F
:104FBC0033450B000B450B00EB440B0013450B006A
:104FCC001B450B0023450B002B450B00000000007C
:104FDC000000000075450B0065450B0067450B0094
:104FEC0061707000000000000000000065460B00BE
:104FFC006F460B0079460B0083460B008D460B0069
:10500C0099460B00A5460B00AD460B00B5460B00B0
:10501C00C1460B00C9460B00D3460B00DD460B0006
:10502C0025592D256D2D25645425483A254D3A25B5
:10503C0053257A0061736374696D6500000000008C
:10504C0000000000B5480B0021490B00F9480B008B
:10505C00C9470B00C9480B00E5480B00D7480B00AB
:10506C00F3480B00B7480B00BB480B0000000000D6
:10507C00000000005F490B00C7490B009D490B0065
:10508C00C9470B008F490B0061490B0071490B009C
:10509C00C1490B0081490B0059490B00000000006D
:1050AC0000000000B74A0B00AD4A0B00A34A0B00EE
:1050BC00594A0B00974A0B008B4A0B00A5460B0074
:1050CC00AD460B007F4A0B00774A0B006D4A0B0074
:1050DC00634A0B00DD460B00005245454E54206DD3
:1050EC00616C6C6F632073756363656564656400E4
:1050FC002F746D702F6A656E6B696E732D47434309
:10510C002D31302D706970656C696E652D34385F8A
:10511C0032303230313132345F3136303631383032
:10512C003633392F7372632F6E65776C69622F6E0D
:10513C0065776C69622F6C6962632F7374646C6938
:10514C00622F72616E642E63000000005D440B00E0
:10515C00D5440B0055460B00B5470B005D480B00C2
:10516C007D480B00A1480B00C14A0B000000000059
:04517C00000000002F
:04518000000000002B
:1051840040500B0050E60320000000000000000027
:10519400000000000000000000000000000000000B
:1051A40000000000000000000000000000000000FB
:1051B40000000000000000000000000000000000EB
:1051C40000000000000000000000000000000000DB
:1051D40000000000000000000000000000000000CB
:0C51E4000000000000000000ECE70320C9
:1051F000FFFFFFFF00000102030405060708090A7C
:105200000B0C0D0E0F101112131415161718191A76
:085210001B1C1D1E1F202800BD
:04521800785634127E
:04000003B000401CED
:00000001FF
