:02000004080AE8
:1000000000000A0818110A08000006000600050191
:0800100004029A080000000040
:04001800180F0A08AB
:10001C0009480A4908B5884205D0094A824202D0EB
:10002C00121A00F0C9FE0748074A0021121A00F004
:10003C00D1FE064808BD00BF0000002084100A084D
:10004C006C0000206C000020DD050020DD05002088
:10005C0070B500F0A9FD0025054E064CA41BA408A4
:10006C00A54200D170BD56F8043B98470135F7E71F
:10007C0064100A0880100A0800F013B808B500F0E4
:10008C001BF8BDE8084000F047BD00F0C7B900F010
:10009C00CDB90078B0FA80F04009704701230370A5
:1000AC00704708B50121022000F0FAFDBDE80840B8
:1000BC000121032000F0F4BD08B57F21022000F0DF
:1000CC0000FEFF21032000F0FCFD4FF47A7000F0DD
:1000DC00BDF97F21032000F0F4FD0220FF2100F088
:1000EC00F0FDBDE808404FF47A7000F0AFB90000A5
:1000FC0008B5024B1B685B6C019308BDD001060868
:10010C0008B5024B1B689B6C019308BDD001060817
:10011C0008B5024B1B685B68019308BD9C0106087F
:10012C0008B5024B1B685B69019308BD9C0106086E
:10013C0008B5024B1B685B68019308BDB00106084B
:10014C0008B5024B1B689B68019308BDB0010608FB
:10015C0008B5024B1B68DB68019308BDB0010608AB
:10016C0008B5024B1B689B6A019308BDB0010608D9
:10017C0008B5024B1B689B6F019308BDB0010608C4
:10018C0008B5024B1B681B6E019308BDAC01060839
:10019C0008B5024B1B685B6E019308BDAC010608E9
:1001AC0008B5024B1B689B6E019308BDAC01060899
:1001BC0008B5024B1B68DB6E019308BDAC01060849
:1001CC0008B5024B1B681B6F019308BDAC010608F8
:1001DC0008B5024B1B685B6F019308BDAC010608A8
:1001EC0008B5034B1B68D3F88030019308BD0000A1
:1001FC00AC01060808B5024B1B68DB69019308BD0E
:10020C00B401060808B5024B1B681B6A019308BDB4
:10021C00B401060808B5024B1B689B69019308BD25
:10022C00C401060808B5024B1B685B6A019308BD44
:10023C00C401060808B5024B1B689B6A019308BDF4
:10024C00C401060808B5024B1B68DB6A019308BDA4
:10025C00C401060808B5024B1B681B6B019308BD53
:10026C00C401060808B5024B1B685B6B019308BD03
:10027C00C401060808B5024B1B689B6B019308BDB3
:10028C00C401060808B5024B1B681B6C019308BD22
:10029C00C401060808B5024B1B681B68019308BD16
:1002AC00D801060808B5024B1B681B69019308BDF1
:1002BC00D801060808B5024B1B685B69019308BDA1
:1002CC00D801060808B5024B1B689B69019308BD51
:1002DC00D801060808B5024B1B68DB69019308BD01
:1002EC00D801060808B5024B1B681B6A019308BDB0
:1002FC00D801060808B5024B1B689B6C019308BD1E
:10030C00C001060808B5024B1B685B68019308BD69
:10031C00A401060808B5024B1B685B69019308BD74
:10032C00A401060808B5034B1B68D3F89030019361
:10033C0008BD0000A401060808B5034B1B68D3F8E0
:10034C009C30019308BD0000A401060808B5024BBF
:10035C001B68DB6B019308BDCC01060808B5024B8A
:10036C001B685B68019308BDC801060808B5024B01
:10037C001B689B68019308BDC801060808B5024BB1
:10038C001B68DB68019308BDC801060808B5024B61
:10039C001B681B69019308BDC801060808B5024B10
:1003AC001B685B69019308BDC801060808B5024BC0
:1003BC001B689B69019308BDC801060808B5024B70
:1003CC001B68DB69019308BDC801060808B5024B20
:1003DC001B681B6A019308BDC801060808B5024BCF
:1003EC001B681B6B019308BDC801060808B5024BBE
:1003FC001B685B6B019308BDC801060808B5024B6E
:10040C001B681B6C019308BDC801060808B5024B9C
:10041C001B685B6C019308BDC801060808B5024B4C
:10042C001B681B68019308BDA001060808B5024BA8
:10043C001B685B68019308BDA001060808B5024B58
:10044C001B685B6C019308BDA00106080021FFF737
:10045C0061BF7047F8B5064615460C468F18BC426E
:10046C0006D0336830469B6814F8011B9847F6E7B2
:10047C002846F8BD0022007CFFF782BE0021007CDC
:10048C00FFF786BE0021007CFFF78ABE0021007CAE
:10049C00FFF78EBE0021007CFFF792BE10B504461C
:1004AC00142100F07FFC204610BD000010B54FF465
:1004BC007A73044608460021C4E90113034B114624
:1004CC0023602074FFF78CFE204610BD340F0A0801
:1004DC00704710B50446182100F064FC204610BD8E
:1004EC00F8B50E46002400F10807051D17F8011D8C
:1004FC000A22304600F0EFF8AF42044401D1204606
:10050C00F8BD002CF2D02E21304600F0E1F8044466
:10051C00ECE7000010B50446044B1122002140F812
:10052C00043B00F057FC204610BD00BF5C0F0A08CE
:10053C000346074A10B543F8042B01F1100251F899
:10054C00044B914243F8044BF9D10A781A7010BD50
:10055C005C0F0A08024AC0E90021042202757047A8
:10056C005C0F0A0810B59DF8084044EA03240423E4
:10057C0044EA024444EA01644460037510BD00007F
:10058C0037B5044D05609DF818500095FFF7EAFF4C
:10059C0003B030BD5C0F0A08014B024A1A60704769
:1005AC006C000020680F0A08002340681A46FFF709
:1005BC00D5BE002202214068FFF7E0BE0022406851
:1005CC001146FFF7D3BE002240681146FFF7DEBE8E
:1005DC00002340681A461946FFF7E0BE0023406826
:1005EC001A461946FFF7E2BE00214068FFF706BF26
:1005FC0000214068FFF70ABF0022406881F001012A
:10060C00FFF7DCBE00224068FFF7E8BE002240681E
:10061C001146FFF7EBBE002240681146FFF7D6BE2D
:10062C0070B515468EB0044608A8FFF773FF11226B
:10063C00002103A800F0CEFB0026284600F0F6FBB4
:10064C000A4B009681B25B68284603AAFFF752FE5C
:10065C0030B131462046FFF77DFF20460EB070BD0D
:10066C00204603A9FFF764FFF7E700BFF004002062
:10067C00024B034A1A6000225A6070477000002037
:10068C00740F0A08F8B506460D4600248F18BD42B3
:10069C000CD0336830469B6815F8011B9847031E35
:1006AC0001DB1C44F3E7002C08BF1C462046F8BDB8
:1006BC0070B505460C46084649B100F0B7FB2B68EF
:1006CC00024621462846BDE87040DB68184770BDDD
:1006DC0003689B6818470023012A98BF0A2230B58B
:1006EC008BB00C468DF8243009A92546B4FBF2F4E6
:1006FC0004FB1253DBB2092B94BF30333733DBB21C
:10070C00AA4201F8013DF0D9FFF7D2FF0BB030BD82
:10071C000022014B9A6070477800002070B50026CB
:10072C0004460D4640F8086FFFF7E2FC284625709A
:10073C00FFF760FD2046666070BD000002220020BD
:10074C00044B1A60044B054A1860988098719A60A3
:10075C00FFF7D8BD94000020880000200000FFFFA8
:10076C00024B1A68024B1A60704700BF0000002051
:10077C0098000020704741747047704708B5007CA2
:10078C00FFF780FD20EAE07008BD08B5007CFFF79C
:10079C0051FD20EAE07008BD08B5007CFFF75AFD5A
:1007AC0040EAE07008BD08B5007CFFF74BFD40EA5D
:1007BC00E07008BD007CFFF755BD70B5467C044663
:1007CC000D462EB12946207CBDE87040FFF72ABDAE
:1007DC00007CFFF757FD0028F4DC304670BD10B5E7
:1007EC000446142100F0DEFA204610BD4FF0000C38
:1007FC0010B50446084611464FF47A72C4E901C29A
:10080C00044A20742260012262741A46FFF702FD2A
:10081C00204610BDCC0F0A0838B50C4D2978BFF313
:10082C005B8F11F001040FD12846FFF732FC58B151
:10083C002146074B074A0848FFF7D8FF2846FFF721
:10084C002DFC064800F0B2FA034838BD9C0000208D
:10085C0024010020A0000020A801002087070A081E
:10086C00417470477047704708B50021007CFFF752
:10087C0029FD40EAE07008BD08B50121007CFFF7B6
:10088C0021FD40EAE07008BD08B5007CFFF712FDC1
:10089C0020EAE07008BD08B5007CFFF703FD20EAF4
:1008AC00E07008BD38B50446007C0D46FFF702FD2C
:1008BC00002801DC607C28B12946207CFFF70AFD6A
:1008CC0020EAE07038BD007CFFF70CBD10B5044683
:1008DC00142100F067FA204610BD704710B54FF494
:1008EC007A73044608460021C4E90113044B2074B2
:1008FC002360012311466374FFF7CCFC204610BD26
:10090C00FC0F0A0810B504461422002100F062FA0C
:10091C00054B20466360054BE36040F201132381D5
:10092C008123238210BD00BFEC010020ED020020CA
:10093C0030B50E4D87B001A8FFF7E4FF2978BFF35F
:10094C005B8F11F001040ED12846FFF7A2FB50B1CA
:10095C00214601AA0648FFF7C1FF2846FFF79EFB78
:10096C00044800F023FA024807B030BDBC01002057
:10097C00C401002071080A0810B504461422002195
:10098C0000F028FA054B20466360054BE36040F20B
:10099C00011323818123238210BD00BF6E0300202D
:1009AC006F04002010B50E4C86B001A8FFF7E4FFD1
:1009BC002378BFF35B8FDB070ED42046FFF769FB70
:1009CC0050B1012101AA0748FFF788FF2046FFF725
:1009DC0065FB054800F0EAF9024806B010BD00BFFF
:1009EC00C0010020D8010020E7080A080022406856
:1009FC001146FFF7CBBCF0B5154689B011220E4657
:100A0C000446002103A800F0E5F9284600F00EFA90
:100A1C00002781B273682846009703AAFFF76AFC87
:100A2C0030B139462046FFF795FD204609B0F0BDA0
:100A3C00204603A9FFF77CFDF7E70022406811462A
:100A4C00FFF7C4BC002240681146FFF7CFBC002260
:100A5C004068FFF7C3BC0022406881F00101FFF73A
:100A6C00ADBC002340681A461946FFF79FBC002313
:100A7C0040681A461946FFF791BC0022406811469F
:100A8C00FFF774BC002202214068FFF777BC0023FB
:100A9C0040681A46FFF762BC0422024B5A60024AB5
:100AAC001A607047F00400202C100A08014B1860E3
:100ABC00704700BF0400002008B5134B43B1FFF78B
:100ACC0037FF03681B699847002801DDAFF30080EE
:100ADC000E4B43B1FFF7A0FE03681B699847002833
:100AEC0001DDAFF300800A4B0BB1AFF30080094B73
:100AFC0043B1FFF757FF03681B699847002801DDD6
:100B0C00AFF3008008BD00BF000000000000000033
:100B1C00000000000000000008B5FFF7CDFFFFF754
:100B2C00FFFA014B186008BD100500200548064A65
:100B3C0008B5121A054900F03FF9054B054A1A6031
:100B4C0008BD00BF004002400440024080100A086B
:100B5C00004002401E1C279A002307B51A466FF06E
:100B6C0077010093FFF7E8FB03B05DF804FB00008E
:100B7C0007B543880A2B08D0502B0BD1094B1B68A7
:100B8C004BB103B05DF804EB1847FFF7E5FF03B07A
:100B9C005DF804FB00231A466FF077010093FFF712
:100BAC00CBFBF4E7FC040020002110B51148FFF743
:100BBC0045FC114B1A68114B9A420CBF01220022C2
:100BCC000F4B1A7001D0FFF7B1FFFFF7A1FA0446E3
:100BDC0000F008F90B4B13B12046AFF30080002155
:100BEC000848FFF7B3FBBDE8104000210648FFF7AB
:100BFC0099BB00BFB90A0A08004002401E1C279A84
:100C0C00F8040020000000007D0B0A08024B9868D5
:100C1C0008B1FFF775BA704704050020172870B5A6
:100C2C00044601D9002070BDA0F10D03022B0BD995
:100C3C00012824D800F084F80021007CFFF7C8FAC2
:100C4C0080F00100C0B2EEE7124E3178BFF35B8F3B
:100C5C0011F001050DD13046FFF71BFA48B12946BA
:100C6C000D48FFF75BFD3046FFF718FA0B4800F014
:100C7C009DF8094B1878FFF7C5FA0028D2D1123C21
:100C8C00012C05D8FFF7C8FD007CFFF7F3FAD7E776
:100C9C000120C8E70005002004050020190C0A08F3
:100CAC00172838B504460D460AD8FF2908D0FFF797
:100CBC00B5FF28B129462046BDE83840FFF740BAB9
:100CCC0038BD38B504460D46FFF7A8FFF0B1042136
:100CDC002046FFF72DFA042805D12046A9B2BDE81D
:100CEC003840FFF73DBA02212046FFF721FA0228CF
:100CFC000CD12046FFF72CFA012801D0042805D18D
:100D0C0029462046BDE83840FFF732BA38BD704757
:100D1C00002370B5202543801423084E044603801D
:100D2C00314685600561284600F03EF8314660602A
:100D3C00284600F039F8E060204670BD60100A08C3
:100D4C0030B50E4D87B02978BFF35B8F11F00104DD
:100D5C0011D12846FFF79DF968B101A8FFF7D8FF1C
:100D6C00214601AA0648FFF7A1FB2846FFF796F992
:100D7C00044800F01BF8024807B030BD14050020F1
:100D8C00180500201B0D0A08002307B51A46194642
:100D9C0000930348FFF7F4FB03B05DF804FB00BFBE
:100DAC002C050020FFF773B9FFF76FB9002301463C
:100DBC001A46184600F042B80A44914200F1FF333B
:100DCC0000D1704710B511F8014B914203F8014F57
:100DDC00F9D110BD03460244934200D1704703F889
:100DEC00011BF9E738B50D4B04461D68AB6B7BB99D
:100DFC001820FFF713FB0A4A0A4BA863C0E900232B
:100E0C00094B012283600B2383810023C0E9042357
:100E1C000022AB6B1C615A6138BD00BF040000207E
:100E2C000E33CDAB34126DE6ECDE0500034613F841
:100E3C00012B002AFBD1181A013870472DE9F84311
:100E4C00DFF8BC800646D8F800001F460D469146D8
:100E5C0000F058F8264B1C6834B9264C1C60264B05
:100E6C0013B11B68C4F8883063681F2B07DDD8F8F2
:100E7C00000000F049F84FF0FF30BDE8F8835EB396
:100E8C00D4F8880088B91D4B23B9D8F8000000F0BD
:100E9C003AF8F0E74FF48470FFF7C0FA0028F4D06A
:100EAC000023C0E94033C4F8880001226368022E95
:100EBC0040F8239002FA03F200EB8301D0F80031E2
:100ECC0043EA0203C0F80031C1F8807002BFD0F8C9
:100EDC0004311A43C0F804216368D8F800005A1C86
:100EEC000233626044F8235000F00EF80020C4E78F
:100EFC00D0050020440500200000000029040A0849
:100F0C006800002070477047704700001D000A08F9
:100F1C005D000A0885000A0889000A080000000024
:100F2C0000000000000000005F040A08A9040A0881
:100F3C0081040A0861040A0889040A0891040A0851
:100F4C0099040A08A1040A0800000000000000002F
:100F5C00ED040A08DD040A08DF040A086170700059
:100F6C000000000000000000B5050A08BF050A08D3
:100F7C00C9050A08D3050A08DD050A08E9050A08A7
:100F8C00F5050A08FD050A0805060A0811060A08EF
:100F9C0019060A0823060A082D060A0825592D25C4
:100FAC006D2D25645425483A254D3A2553257A0054
:100FBC0061736374696D650000000000000000003F
:100FCC0081070A08EB070A08C7070A0891060A08EE
:100FDC0097070A08B3070A08A5070A08C1070A08F1
:100FEC0083070A0889070A080000000000000000B7
:100FFC0073080A08D9080A08B1080A0891060A08F1
:10100C00A3080A0875080A0885080A08D3080A08FC
:10101C0095080A086D080A0800000000000000008E
:10102C009B0A0A08910A0A08870A0A08F9090A0899
:10103C007B0A0A086F0A0A08F5050A08FD050A0862
:10104C00630A0A085B0A0A08510A0A08470A0A08CE
:10105C00030A0A0800000000A5050A087D060A0814
:10106C001D070A0849070A086D070A08A50A0A0895
:04107C00950D0A08BC
:04108000000000006C
:10108400BC0F0A0808000020000000000000000057
:10109400000000000000000000000000000000004C
:1010A400000000000000000000000000000000003C
:1010B400000000000000000000000000000000002C
:1010C400000000000000000000000000000000001C
:1010D400000000000000000000000000000000000C
:0C10E4000000000000000000D505002006
:1010F000FFFFFFFF00000102030405060708090ABD
:101100000B0C0D0E0F101112131415161718191AB7
:081110001B1C1D1E1F202800FE
:0411180078563412BF
:04000005080A001CC9
:00000001FF
